:020000040800F2
:1000000000500020B5090008590900085F090008E0
:10001000650900086B09000871090008000000006C
:100020000000000000000000000000007709000848
:1000300083090008000000008F0900089B090008E0
:10004000FD090008FD090008FD090008FD09000878
:10005000FD090008FD090008FD090008FD09000868
:10006000FD090008FD090008FD090008FD09000858
:10007000FD090008FD090008FD090008FD09000848
:10008000FD090008FD090008FD090008FD09000838
:10009000FD090008FD090008FD090008FD09000828
:1000A000FD090008FD090008FD090008FD09000818
:1000B000FD090008FD090008FD090008FD09000808
:1000C000FD090008FD090008FD090008FD090008F8
:1000D000FD090008FD090008FD090008FD090008E8
:1000E000FD090008FD090008FD09000800000000E6
:1000F0000000000000000000000000000000000000
:0C01000000000000000000005FF808F1A3
:10010C0010B5054C237833B9044B13B10448AFF345
:10011C0000800123237010BD10000020000000009F
:10012C00B429000808B5034B1BB103490348AFF3CE
:10013C00008008BD0000000014000020B429000855
:10014C0080B582B002AF00F055FC00F069F800F009
:10015C005DF900F0A5F800F0D9F800212B4801F06A
:10016C00C9FE0421294801F0C5FE012201212848BD
:10017C0000F02EFF052000F09FFC0121244800F028
:10018C003FFF0A2300930823224A2349234801F006
:10019C00B3FB01211E4800F033FF1E4800F094F918
:1001AC000346082B2FD801A252F823F0DD010008DA
:1001BC00E3010008E9010008EF010008F50100085F
:1001CC00FB01000807020008010200080D020008EC
:1001DC0000F004FA18E000F069FA15E000F080FA7B
:1001EC0012E000F049FA0FE000F094FA0CE000F095
:1001FC00ABFA09E000F026FA06E000F009FA03E099
:10020C0000F0BCFA00E000BFB4E700BF840000209F
:10021C00000C0140CC000020000000202C0000202D
:10022C0080B590B000AF07F11803282200211846C2
:10023C0002F08EFB3B1D00221A605A609A60DA6055
:10024C001A610223BB610123BB621023FB620223F0
:10025C007B630023BB630023FB6307F11803184681
:10026C0000F0E8FE0346002B01D000F0A1FA0F23AA
:10027C007B600223BB600023FB6000233B610023F7
:10028C007B613B1D0021184601F056F90346002BFB
:10029C0001D000F08DFA00BF4037BD4680BD000094
:1002AC0080B500AF174B184A1A60164B4FF4827288
:1002BC005A60144B00229A60124B0022DA60114BE8
:1002CC0002221A610F4B01225A610E4B4FF480220D
:1002DC009A610C4B3022DA610A4B80221A62094B6C
:1002EC0000225A62074B00229A62064B0A22DA62FB
:1002FC00044801F07DFA0346002B01D000F058FAB7
:10030C0000BF80BD2C0000200030014080B58EB0B5
:10031C0000AF07F1280300221A605A609A60DA6075
:10032C0007F1200300221A605A603B1D00221A605C
:10033C005A609A60DA601A615A619A61324B4FF0D6
:10034C0080421A60304B07225A602F4B00229A6071
:10035C002D4B6322DA602C4B00221A612A4B0022AF
:10036C009A61294801F01EFD0346002B01D000F0D4
:10037C001FFA4FF48053BB6207F128031946224839
:10038C0001F01CFF0346002B01D000F011FA1E48AF
:10039C0001F057FD0346002B01D000F009FA0023B1
:1003AC003B6200237B6207F120031946164802F0DA
:1003BC0071FA0346002B01D000F0FAF960237B6040
:1003CC000023BB600023FB6000237B613B1D0022EC
:1003DC0019460D4801F030FE0346002B01D000F009
:1003EC00E7F93B1D04221946074801F025FE034698
:1003FC00002B01D000F0DCF9034800F077FA00BFC5
:10040C003837BD4680BD00BF8400002080B588B061
:10041C0000AF07F1100300221A605A609A60DA608C
:10042C00264B9B69254A43F020039361234B9B6920
:10043C0003F02003FB60FB68204B9B691F4A43F0D1
:10044C00040393611D4B9B6903F00403BB60BB6801
:10045C001A4B9B69194A43F008039361174B9B692C
:10046C0003F008037B607B6800220C21144800F029
:10047C00AFFD00220121134800F0AAFD0C233B61C3
:10048C0001237B610023BB610223FB6107F1100395
:10049C0019460B4800F018FC01233B6101237B61DA
:1004AC000023BB610223FB6107F1100319460548C9
:1004BC0000F00AFC00BF2037BD4680BD0010024092
:1004CC0000080140000C014080B485B000AF78609A
:1004DC000023FB730023BB7300237B7300233B734C
:1004EC007B6803331B787F2B09D07B6803331B7825
:1004FC006F2B04D07B6803331B783F2B01D1012376
:10050C007B737B6803331B78DF2B09D07B68033349
:10051C001B78CF2B04D07B6803331B789F2B01D126
:10052C0001233B737B6804331B78EF2B09D07B686A
:10053C0004331B786F2B04D07B6804331B78CF2BD0
:10054C0001D10123FB737B6804331B789F2B09D0EB
:10055C007B6804331B78BF2B04D07B6804331B7877
:10056C003F2B01D10123BB73FB7B002B04D07B7B86
:10057C00002B01D001232CE0FB7B002B04D03B7B18
:10058C00002B01D0022324E0FB7B002B01D00023A5
:10059C001FE0BB7B002B04D07B7B002B01D0042302
:1005AC0017E0BB7B002B04D03B7B002B01D0052339
:1005BC000FE0BB7B002B01D003230AE07B7B002BDD
:1005CC0001D0062305E03B7B002B01D0072300E084
:1005DC00082318461437BD4680BC704780B500AF61
:1005EC0001220421084800F0F3FC084B1B68002290
:1005FC005A6300220821044800F0EAFC034B1B68F4
:10060C0064229A6300BF80BD000801408400002072
:10061C0080B500AF00220421084800F0D9FC084B3B
:10062C001B6864225A6300220821044800F0D0FCA5
:10063C00034B1B6864229A6300BF80BD0008014015
:10064C008400002080B500AF01220421084800F08E
:10065C00BFFC084B1B6800225A6301220821044886
:10066C0000F0B6FC034B1B6800229A6300BF80BDF0
:10067C00000801408400002080B500AF0022042156
:10068C00084800F0A5FC084B1B6864225A63012241
:10069C000821044800F09CFC034B1B6800229A6361
:1006AC0000BF80BD000801408400002080B500AF71
:1006BC0001220421084800F08BFC084B1B684622E1
:1006CC005A6300220821044800F082FC034B1B688B
:1006DC0064229A6300BF80BD0008014084000020A2
:1006EC0080B500AF01220421084800F071FC084BD2
:1006FC001B6800225A6300220821044800F068FCA1
:10070C00034B1B681E229A6300BF80BD000801408A
:10071C008400002080B500AF00220421084800F0BE
:10072C0057FC084B1B681E225A63012208210448FF
:10073C0000F04EFC034B1B6800229A6300BF80BD87
:10074C00000801408400002080B500AF0022042185
:10075C00084800F03DFC084B1B6864225A630122D8
:10076C000821044800F034FC034B1B6846229A63B2
:10077C0000BF80BD000801408400002080B500AFA0
:10078C0000220421084800F023FC084B1B680022BF
:10079C005A6300220821044800F01AFC034B1B6822
:1007AC0000229A6300BF80BD000801408400002035
:1007BC0080B400AF72B600BFFEE7000080B485B015
:1007CC0000AF154B9B69144A43F001039361124B24
:1007DC009B6903F00103BB60BB680F4BDB690E4ADE
:1007EC0043F08053D3610C4BDB6903F080537B6087
:1007FC007B680A4B5B68FB60FB6823F0E063FB6083
:10080C00FB6843F00073FB60044AFB68536000BF55
:10081C001437BD4680BC70470010024000000140F8
:10082C0080B588B000AF786007F1100300221A6021
:10083C005A609A60DA607B681B681B4A93422FD11E
:10084C001A4B9B69194A43F480539361174B9B696C
:10085C0003F48053FB60FB68144B9B69134A43F011
:10086C0004039361114B9B6903F00403BB60BB68E9
:10087C00B0233B6102237B610323FB6107F110036F
:10088C0019460B4800F020FA40233B6100237B61A2
:10089C000023BB6107F110031946054800F014FA58
:1008AC0000BF2037BD4680BD003001400010024023
:1008BC000008014080B485B000AF78607B681B688D
:1008CC00B3F1804F0BD1084BDB69074A43F00103AE
:1008DC00D361054BDB6903F00103FB60FB6800BFD0
:1008EC001437BD4680BC70470010024080B588B0FC
:1008FC0000AF786007F1100300221A605A609A600A
:10090C00DA607B681B68B3F1804F17D10D4B9B6984
:10091C000C4A43F0040393610A4B9B6903F00403F4
:10092C00FB60FB6803233B6102237B610223FB61B9
:10093C0007F110031946044800F0C6F900BF203730
:10094C00BD4680BD001002400008014080B400AFDD
:10095C00FEE780B400AFFEE780B400AFFEE780B4E2
:10096C0000AFFEE780B400AFFEE780B400AF00BF7D
:10097C00BD4680BC704780B400AF00BFBD4680BC94
:10098C00704780B400AF00BFBD4680BC704780B5D7
:10099C0000AF00F075F800BF80BD80B400AF00BFA1
:1009AC00BD4680BC70470000FFF7F7FF0B480C49B1
:1009BC000C4A002302E0D458C4500433C4188C42AF
:1009CC00F9D3094A094C002301E013600432A24216
:1009DC00FBD301F0C5FFFFF7B3FB7047000000200D
:1009EC0010000020F829000810000020D80000207A
:1009FC00FEE7000080B500AF084B1B68074A43F0C8
:100A0C0010031360032000F02BF90F2000F008F8FE
:100A1C00FFF7D4FE0023184680BD00BF0020024023
:100A2C0080B582B000AF7860124B1A68124B1B78FD
:100A3C0019464FF47A73B3FBF1F3B2FBF3F3184698
:100A4C0000F035F90346002B01D001230EE07B6842
:100A5C000F2B0AD8002279684FF0FF3000F00BF909
:100A6C00064A7B681360002300E001231846083710
:100A7C00BD4680BD040000200C00002008000020B2
:100A8C0080B400AF054B1B781A46054B1B6813440A
:100A9C00034A136000BFBD4680BC70470C000020A9
:100AAC00D400002080B400AF024B1B681846BD4632
:100ABC0080BC7047D400002080B584B000AF786053
:100ACC00FFF7F0FFB8607B68FB60FB68B3F1FF3F9A
:100ADC0005D00A4B1B781A46FB681344FB6000BF19
:100AEC00FFF7E0FF0246BB68D31AFA689A42F7D8C0
:100AFC0000BF00BF1037BD4680BD00BF0C000020FA
:100B0C0080B485B000AF78607B6803F00703FB60AE
:100B1C000C4BDB68BB60BA684FF6FF031340BB603D
:100B2C00FB681A02BB68134343F0BF6343F4003302
:100B3C00BB60044ABB68D36000BF1437BD4680BCA1
:100B4C00704700BF00ED00E080B400AF044BDB68E1
:100B5C001B0A03F007031846BD4680BC704700BF54
:100B6C0000ED00E080B483B000AF03463960FB7148
:100B7C0097F90730002B0ADB3B68DAB20C4997F97E
:100B8C0007301201D2B20B4483F800230AE03B6811
:100B9C00DAB20849FB7903F00F03043B1201D2B21D
:100BAC000B441A7600BF0C37BD4680BC704700BFA3
:100BBC0000E100E000ED00E080B489B000AFF86027
:100BCC00B9607A60FB6803F00703FB61FB69C3F152
:100BDC000703042B28BF0423BB61FB690433062BDA
:100BEC0002D9FB69033B00E000237B614FF0FF322D
:100BFC00BB6902FA03F3DA43BB681A407B699A407B
:100C0C004FF0FF317B6901FA03F3D9437B680B404A
:100C1C00134318462437BD4680BC704780B582B05C
:100C2C0000AF78607B68013BB3F1807F01D3012377
:100C3C000FE00A4A7B68013B53600F214FF0FF30F5
:100C4C00FFF790FF054B00229A60044B07221A60B5
:100C5C00002318460837BD4680BD00BF10E000E0F9
:100C6C0080B582B000AF78607868FFF749FF00BFAD
:100C7C000837BD4680BD80B586B000AF0346B9606D
:100C8C007A60FB7300237B61FFF75EFF78617A6803
:100C9C00B9687869FFF790FF024697F90F30114653
:100CAC001846FFF75FFF00BF1837BD4680BD80B503
:100CBC0082B000AF78607868FFF7B0FF0346184643
:100CCC000837BD4680BD000080B48BB000AF7860A3
:100CDC00396000237B6200233B6269E101227B6A5D
:100CEC0002FA03F3FB613B681B68FA691340BB61B2
:100CFC00BA69FB699A4240F058813B685B689A4A32
:100D0C0093425ED0984A934275D8984A934258D0F1
:100D1C00964A93426FD8964A934252D0944A934241
:100D2C0069D8944A93424CD0924A934263D8924ADF
:100D3C00934246D0904A93425DD8122B2AD8122B5C
:100D4C0059D801A252F823F0CF0D0008A90D0008C4
:100D5C00BB0D0008FD0D0008030E0008030E000873
:100D6C00030E0008030E0008030E0008030E000813
:100D7C00030E0008030E0008030E0008030E000803
:100D8C00030E0008030E0008030E0008B10D000846
:100D9C00C50D0008794A934213D02CE03B68DB6800
:100DAC003B6229E03B68DB6804333B6224E03B6830
:100DBC00DB6808333B621FE03B68DB680C333B624B
:100DCC001AE03B689B68002B02D104233B6213E0C2
:100DDC003B689B68012B05D108233B627B68FA6951
:100DEC001A6109E008233B627B68FA695A6103E0E7
:100DFC0000233B6200E000BFBB69FF2B01D87B687E
:100E0C0001E07B6804337B61BB69FF2B02D87B6AF2
:100E1C009B0002E07B6A083B9B003B617B691A6884
:100E2C000F213B6901FA03F3DB431A40396A3B6932
:100E3C0001FA03F31A437B691A603B685B6803F0A1
:100E4C008053002B00F0B1804D4B9B694C4A43F012
:100E5C00010393614A4B9B6903F00103BB60BB68C0
:100E6C00484A7B6A9B08023352F82330FB607B6A4A
:100E7C0003F003039B000F2202FA03F3DB43FA682F
:100E8C001340FB607B68404A934213D07B683F4A17
:100E9C0093420DD07B683E4A934207D07B683D4A13
:100EAC00934201D1032306E0042304E0022302E071
:100EBC00012300E000237A6A02F0030292009340BF
:100ECC00FA681343FB602F497B6A9B080233FA686C
:100EDC0041F823203B685B6803F48013002B06D099
:100EEC002D4B9A682C49BB6913438B6006E02A4B47
:100EFC009A68BB69DB43284913408B603B685B688D
:100F0C0003F40013002B06D0234BDA682249BB698B
:100F1C001343CB6006E0204BDA68BB69DB431E4908
:100F2C001340CB603B685B6803F40033002B06D0A6
:100F3C00194B5A681849BB6913434B6006E0164BB2
:100F4C005A68BB69DB43144913404B603B685B68D0
:100F5C0003F48033002B21D00F4B1A680E49BB6968
:100F6C0013430B6021E000BF000032100000311071
:100F7C0000002210000021100000121000001110BF
:100F8C00001002400000014000080140000C01402C
:100F9C000010014000140140000401400B4B1A6882
:100FAC00BB69DB43094913400B607B6A01337B62ED
:100FBC003B681A687B6A22FA03F3002B7FF48EAE2F
:100FCC0000BF00BF2C37BD4680BC704700040140F9
:100FDC0080B483B000AF78600B467B8013467B7087
:100FEC007B78002B03D07A887B681A6103E07B88BE
:100FFC001A047B681A6100BF0C37BD4680BC704771
:10100C0080B485B000AF78600B467B807B68DB6872
:10101C00FB607A88FB6813401A04FB68D9437B8811
:10102C000B401A437B681A6100BF1437BD4680BC65
:10103C007047000080B586B000AF78607B68002BED
:10104C0001D1012372E27B681B6803F00103002BC2
:10105C0000F08780924B5B6803F00C03042B0CD0E0
:10106C008F4B5B6803F00C03082B12D18C4B5B6825
:10107C0003F48033B3F5803F0BD1894B1B6803F429
:10108C000033002B6CD07B685B68002B68D101238C
:10109C004CE27B685B68B3F5803F06D1804B1B68E4
:1010AC007F4A43F4803313602EE07B685B68002B2F
:1010BC000CD17B4B1B687A4A23F480331360784B3A
:1010CC001B68774A23F4802313601DE07B685B6800
:1010DC00B3F5A02F0CD1724B1B68714A43F48023DB
:1010EC0013606F4B1B686E4A43F4803313600BE044
:1010FC006B4B1B686A4A23F480331360684B1B6884
:10110C00674A23F4802313607B685B68002B13D041
:10111C00FFF7C8FC386108E0FFF7C4FC02463B69E6
:10112C00D31A642B01D9032300E25D4B1B6803F433
:10113C000033002BF0D014E0FFF7B4FC386108E06A
:10114C00FFF7B0FC02463B69D31A642B01D9032389
:10115C00ECE1534B1B6803F40033002BF0D100E09F
:10116C0000BF7B681B6803F00203002B63D04C4B61
:10117C005B6803F00C03002B0BD0494B5B6803F04E
:10118C000C03082B1CD1464B5B6803F48033002BFB
:10119C0016D1434B1B6803F00203002B05D07B6870
:1011AC001B69012B01D00123C0E13D4B1B6823F0CF
:1011BC00F8027B685B69DB00394913430B603AE04A
:1011CC007B681B69002B20D0364B01221A60FFF77D
:1011DC0069FC386108E0FFF765FC02463B69D31AED
:1011EC00022B01D90323A1E12D4B1B6803F0020351
:1011FC00002BF0D02A4B1B6823F0F8027B685B694C
:10120C00DB00274913430B6015E0264B00221A60C4
:10121C00FFF748FC386108E0FFF744FC02463B69E5
:10122C00D31A022B01D9032380E11D4B1B6803F059
:10123C000203002BF0D17B681B6803F00803002B22
:10124C003AD07B689B69002B19D0174B01221A608E
:10125C00FFF728FC386108E0FFF724FC02463B69E5
:10126C00D31A022B01D9032360E10D4B5B6A03F007
:10127C000203002BF0D0012000F09CFA1CE00A4B7A
:10128C0000221A60FFF70EFC38610FE0FFF70AFC32
:10129C0002463B69D31A022B08D9032346E100BF4F
:1012AC00001002400000424280044242924B5B6AB2
:1012BC0003F00203002BE9D17B681B6803F00403E5
:1012CC00002B00F0A6800023FB758B4BDB6903F031
:1012DC008053002B0DD1884BDB69874A43F0805338
:1012EC00D361854BDB6903F08053BB60BB68012382
:1012FC00FB75824B1B6803F48073002B18D17F4B5A
:10130C001B687E4A43F480731360FFF7CBFB386194
:10131C0008E0FFF7C7FB02463B69D31A642B01D9DF
:10132C00032303E1754B1B6803F48073002BF0D08F
:10133C007B68DB68012B06D16F4B1B6A6E4A43F04E
:10134C00010313622DE07B68DB68002B0CD16A4B28
:10135C001B6A694A23F001031362674B1B6A664AD6
:10136C0023F0040313621CE07B68DB68052B0CD1B3
:10137C00614B1B6A604A43F0040313625E4B1B6AA9
:10138C005D4A43F0010313620BE05B4B1B6A5A4A44
:10139C0023F001031362584B1B6A574A23F00403D2
:1013AC0013627B68DB68002B15D0FFF77BFB386181
:1013BC000AE0FFF777FB02463B69D31A41F2883209
:1013CC00934201D90323B1E04B4B1B6A03F0020398
:1013DC00002BEED014E0FFF765FB38610AE0FFF755
:1013EC0061FB02463B69D31A41F28832934201D920
:1013FC0003239BE0404B1B6A03F00203002BEED14E
:10140C00FB7D012B05D13C4BDB693B4A23F0805320
:10141C00D3617B68DB69002B00F08780364B5B68FF
:10142C0003F00C03082B61D07B68DB69022B46D1DF
:10143C00334B00221A60FFF735FB386108E0FFF7E9
:10144C0031FB02463B69D31A022B01D903236DE011
:10145C00294B1B6803F00073002BF0D17B681B6ACF
:10146C00B3F5803F08D1244B5B6823F400327B68D2
:10147C009B68214913434B601F4B5B6823F4741228
:10148C007B68196A7B685B6A0B431B4913434B608F
:10149C001B4B01221A60FFF705FB386108E0FFF7D0
:1014AC0001FB02463B69D31A022B01D903233DE011
:1014BC00114B1B6803F00073002BF0D035E0104B80
:1014CC0000221A60FFF7EEFA386108E0FFF7EAFA3B
:1014DC0002463B69D31A022B01D9032326E0064BA3
:1014EC001B6803F00073002BF0D11EE07B68DB69F6
:1014FC00012B07D1012319E00010024000700040BD
:10150C00600042420B4B5B68FB60FB6803F480326B
:10151C007B681B6A9A4206D1FB6803F470127B68E5
:10152C005B6A9A4201D0012300E000231846183769
:10153C00BD4680BD0010024080B584B000AF78601D
:10154C0039607B68002B01D10123D0E06A4B1B680A
:10155C0003F007033A689A4210D9674B1B6823F0D3
:10156C00070265493B6813430B60634B1B6803F030
:10157C0007033A689A4201D00123B8E07B681B68E4
:10158C0003F00203002B20D07B681B6803F00403DC
:10159C00002B05D0594B5B68584A43F4E063536009
:1015AC007B681B6803F00803002B05D0534B5B686A
:1015BC00524A43F460535360504B5B6823F0F00283
:1015CC007B689B684D4913434B607B681B6803F039
:1015DC000103002B40D07B685B68012B07D1474B84
:1015EC001B6803F40033002B15D101237FE07B68CB
:1015FC005B68022B07D1414B1B6803F00073002B77
:10160C0009D1012373E03D4B1B6803F00203002B4F
:10161C0001D101236BE0394B5B6823F003027B683B
:10162C005B68364913434B60FFF73CFAF8600AE0FD
:10163C00FFF738FA0246FB68D31A41F2883293421C
:10164C0001D9032353E02D4B5B6803F00C027B683C
:10165C005B689B009A42EBD1274B1B6803F0070396
:10166C003A689A4210D2244B1B6823F00702224995
:10167C003B6813430B60204B1B6803F007033A686D
:10168C009A4201D0012332E07B681B6803F004030B
:10169C00002B08D0194B5B6823F4E0627B68DB6895
:1016AC00164913434B607B681B6803F00803002B3F
:1016BC0009D0124B5B6823F460527B681B69DB001A
:1016CC000E4913434B6000F021F802460B4B5B684C
:1016DC001B0903F00F030A49CB5C22FA03F3094AF6
:1016EC001360094B1B681846FFF79AF9002318463C
:1016FC001037BD4680BD00BF0020024000100240E4
:10170C00CC290008040000200800002080B487B019
:10171C0000AF0023FB600023BB6000237B61002330
:10172C007B6000233B611E4B5B68FB60FB6803F036
:10173C000C03042B02D0082B03D027E0194B3B6180
:10174C0027E0FB689B0C03F00F03174AD35C7B600C
:10175C00FB6803F48033002B10D0114B5B685B0CDF
:10176C0003F00103114AD35CBB607B680D4A03FB99
:10177C0002F2BB68B2FBF3F37B6104E07B680C4ABA
:10178C0002FB03F37B617B693B6102E0054B3B6130
:10179C0000BF3B6918461C37BD4680BC704700BF74
:1017AC000010024000127A00DC290008EC29000825
:1017BC0000093D0080B485B000AF78600A4B1B680F
:1017CC000A4AA2FB03235B0A7A6802FB03F3FB6061
:1017DC0000BFFB685A1EFA60002BF9D100BF00BF96
:1017EC001437BD4680BC704704000020D34D6210F6
:1017FC0080B582B000AF78607B68002B01D10123EB
:10180C0076E07B685B6A002B08D17B685B68B3F57C
:10181C00827F09D07B680022DA6105E07B680022B8
:10182C001A617B6800225A617B6800229A627B688D
:10183C0093F85130DBB2002B06D17B68002283F881
:10184C0050207868FEF7ECFF7B68022283F8512069
:10185C007B681B681A687B681B6822F040021A6060
:10186C007B685B6803F482727B689B6803F40443B7
:10187C001A437B68DB6803F400631A437B681B69BB
:10188C0003F002031A437B685B6903F001031A43FC
:10189C007B689B6903F400731A437B68DB6903F074
:1018AC0038031A437B681B6A03F0800342EA030186
:1018BC007B689B6A03F400527B681B680A431A60BE
:1018CC007B689B691A0C7B681B6802F004025A60E7
:1018DC007B681B68DA697B681B6822F40062DA613A
:1018EC007B6800225A657B68012283F85120002313
:1018FC0018460837BD4680BD80B58CB000AFF86087
:10190C00B9607A607B800123FB62002387F82B305F
:10191C00FB6893F85030012B01D1022398E1FB684E
:10192C00012283F85020FFF7BDF87862FB6893F82A
:10193C00513087F82330FB685B68FB617B887B83C5
:10194C0097F82330012B0FD0FB69B3F5827F07D1B9
:10195C00FB689B68002B03D197F82330042B03D032
:10196C00022387F82B306DE1BB68002B05D07B6818
:10197C00002B02D07B88002B03D1012387F82B305E
:10198C0060E1FB6893F85130DBB2042B03D0FB68A9
:10199C00052283F85120FB6800225A65FB687A689F
:1019AC009A63FB687A88DA87FB687A889A87FB687F
:1019BC00BA681A63FB687A88DA86FB687A889A8632
:1019CC00FB6800221A64FB6800225A64FB681B68DF
:1019DC001B6803F04003402B07D0FB681B681A6898
:1019EC00FB681B6842F040021A60FB68DB68B3F5C9
:1019FC00006F7CD1FB685B68002B02D07B8B012BCA
:101A0C006AD1FB681B6B1A88FB681B68DA60FB6881
:101A1C001B6B9A1CFB681A63FB68DB8E9BB2013B49
:101A2C009AB2FB68DA8657E0FB681B689B6803F088
:101A3C000203022B1BD1FB68DB8E9BB2002B16D052
:101A4C00FB6A012B13D1FB681B6B1A88FB681B68A4
:101A5C00DA60FB681B6B9A1CFB681A63FB68DB8EF5
:101A6C009BB2013B9AB2FB68DA860023FB62FB68EF
:101A7C001B689B6803F00103012B19D1FB68DB8FFA
:101A8C009BB2002B14D0FB681B68DA68FB689B6B5D
:101A9C0092B21A80FB689B6B9A1CFB689A63FB687A
:101AAC00DB8F9BB2013B9AB2FB68DA870123FB62A6
:101ABC00FEF7F8FF02467B6AD31ABA6B9A420BD830
:101ACC00BB6BB3F1FF3F07D0032387F82B30FB68C8
:101ADC00012283F85120B5E0FB68DB8E9BB2002B12
:101AEC00A2D1FB68DB8F9BB2002B9DD180E0FB6801
:101AFC005B68002B02D07B8B012B6FD1FB681A6BC0
:101B0C00FB681B680C3312781A70FB681B6B5A1C31
:101B1C00FB681A63FB68DB8E9BB2013B9AB2FB68D5
:101B2C00DA865BE0FB681B689B6803F00203022B00
:101B3C001CD1FB68DB8E9BB2002B17D0FB6A012BF0
:101B4C0014D1FB681A6BFB681B680C3312781A7083
:101B5C00FB681B6B5A1CFB681A63FB68DB8E9BB221
:101B6C00013B9AB2FB68DA860023FB62FB681B68B8
:101B7C009B6803F00103012B19D1FB68DB8F9BB22F
:101B8C00002B14D0FB681B68DA68FB689B6BD2B225
:101B9C001A70FB689B6B5A1CFB689A63FB68DB8FA3
:101BAC009BB2013B9AB2FB68DA870123FB62FEF71A
:101BBC0079FF02467B6AD31ABA6B9A4203D8BB6B85
:101BCC00B3F1FF3F02D1BB6B002B07D1032387F886
:101BDC002B30FB68012283F8512033E0FB68DB8E4D
:101BEC009BB2002B9ED1FB68DB8F9BB2002B99D153
:101BFC007A6AB96BF86800F0B7F80346002B06D088
:101C0C00012387F82B30FB6820225A651AE0FB6809
:101C1C009B68002B0AD100237B61FB681B68DB6887
:101C2C007B61FB681B689B687B617B69FB685B6DF8
:101C3C00002B03D0012387F82B3003E0FB68012233
:101C4C0083F85120FB68002283F8502097F82B3042
:101C5C0018463037BD4680BD80B588B000AFF860FF
:101C6C00B9603B601346FB71FEF71CFF0246BB6A72
:101C7C009B1A3A681344FB61FEF714FFB861394BA9
:101C8C001B685B011B0DFA6902FB03F37B6154E0DB
:101C9C003B68B3F1FF3F50D0FEF704FF0246BB692F
:101CAC00D31AFA699A4202D9FB69002B3DD1FB6821
:101CBC001B685A68FB681B6822F0E0025A60FB68DC
:101CCC005B68B3F5827F11D1FB689B68B3F5004F5D
:101CDC0004D0FB689B68B3F5806F07D1FB681B6869
:101CEC001A68FB681B6822F040021A60FB689B6A4A
:101CFC00B3F5005F0FD1FB681B681A68FB681B68A3
:101D0C0022F400521A60FB681B681A68FB681B6897
:101D1C0042F400521A60FB68012283F85120FB68E0
:101D2C00002283F85020032317E07B69002B01D19C
:101D3C000023FB617B69013B7B61FB681B689A6834
:101D4C00BB681340BA689A420CBF01230023DBB274
:101D5C001A46FB799A429BD1002318462037BD4680
:101D6C0080BD00BF0400002080B586B002AFF860D3
:101D7C00B9607A607B680093BB6800228021F868A8
:101D8C00FFF76AFF0346002B07D0FB685B6D43F03F
:101D9C002002FB685A65032300E000231846103725
:101DAC00BD4680BD80B582B000AF78607B68002BEB
:101DBC0001D1012341E07B6893F83D30DBB2002B6D
:101DCC0006D17B68002283F83C207868FEF772FD10
:101DDC007B68022283F83D207B681A687B68043399
:101DEC001946104600F0B2FA7B68012283F84620AF
:101DFC007B68012283F83E207B68012283F83F2018
:101E0C007B68012283F840207B68012283F8412003
:101E1C007B68012283F842207B68012283F84320EF
:101E2C007B68012283F844207B68012283F84520DB
:101E3C007B68012283F83D20002318460837BD46F5
:101E4C0080BD80B582B000AF78607B68002B01D17B
:101E5C00012341E07B6893F83D30DBB2002B06D1C7
:101E6C007B68002283F83C20786800F039F87B68A6
:101E7C00022283F83D207B681A687B68043319467C
:101E8C00104600F063FA7B68012283F846207B68D9
:101E9C00012283F83E207B68012283F83F207B6877
:101EAC00012283F840207B68012283F841207B6863
:101EBC00012283F842207B68012283F843207B684F
:101ECC00012283F844207B68012283F845207B683B
:101EDC00012283F83D20002318460837BD4680BDFB
:101EEC0080B483B000AF786000BF0C37BD4680BCB7
:101EFC007047000080B584B000AF786039603B68F3
:101F0C00002B09D17B6893F83E30DBB2012B14BF58
:101F1C0001230023DBB222E03B68042B09D17B6850
:101F2C0093F83F30DBB2012B14BF01230023DBB24B
:101F3C0015E03B68082B09D17B6893F84030DBB285
:101F4C00012B14BF01230023DBB208E07B6893F85C
:101F5C004130DBB2012B14BF01230023DBB2002B79
:101F6C0001D001235EE03B68002B04D17B68022288
:101F7C0083F83E2013E03B68042B04D17B680222DB
:101F8C0083F83F200BE03B68082B04D17B680222CE
:101F9C0083F8402003E07B68022283F841207B68B1
:101FAC001B6801223968184600F050FC7B681B68DE
:101FBC001E4A934207D17B681B685A6C7B681B686E
:101FCC0042F400425A647B681B68184A93420ED054
:101FDC007B681B68B3F1804F09D07B681B68144A7F
:101FEC00934204D07B681B68124A934211D17B68E0
:101FFC001B689B6803F00703FB60FB68062B10D083
:10200C007B681B681A687B681B6842F001021A60C7
:10201C0007E07B681B681A687B681B6842F001024A
:10202C001A60002318461037BD4680BD002C0140B5
:10203C00000400400008004080B586B000AFF86096
:10204C00B9607A600023FB75FB6893F83C30012B78
:10205C0001D10223AEE0FB68012283F83C207B68AF
:10206C000C2B00F29F8001A252F823F0AD20000847
:10207C00B1210008B1210008B1210008ED200008B1
:10208C00B1210008B1210008B12100082F2100085E
:10209C00B1210008B1210008B12100086F2100080E
:1020AC00FB681B68B968184600F0B2F9FB681B683E
:1020BC009A69FB681B6842F008029A61FB681B680E
:1020CC009A69FB681B6822F004029A61FB681B6822
:1020DC009969BB681A69FB681B680A439A6164E0DA
:1020EC00FB681B68B968184600F0F8F9FB681B68B8
:1020FC009A69FB681B6842F400629A61FB681B6872
:10210C009A69FB681B6822F480629A61FB681B6801
:10211C009969BB681B691A02FB681B680A439A61C0
:10212C0043E0FB681B68B968184600F041FAFB688D
:10213C001B68DA69FB681B6842F00802DA61FB680D
:10214C001B68DA69FB681B6822F00402DA61FB6821
:10215C001B68D969BB681A69FB681B680A43DA619A
:10216C0023E0FB681B68B968184600F08BFAFB6823
:10217C001B68DA69FB681B6842F40062DA61FB6871
:10218C001B68DA69FB681B6822F48062DA61FB6801
:10219C001B68D969BB681B691A02FB681B680A4378
:1021AC00DA6102E00123FB7500BFFB68002283F8B3
:1021BC003C20FB7D18461837BD4680BD80B584B0E9
:1021CC0000AF786039600023FB737B6893F83C3078
:1021DC00012B01D10223B4E07B68012283F83C205F
:1021EC007B68022283F83D207B681B689B68BB6080
:1021FC00BB6823F07703BB60BB6823F47F43BB60F1
:10220C007B681B68BA689A603B681B68B3F5005F13
:10221C003ED0B3F5005F00F28780B3F5805F00F02D
:10222C008680B3F5805F7FD8702B1AD0702B7BD84B
:10223C00602B50D0602B77D8502B3CD0502B73D8C0
:10224C00402B58D0402B6FD8302B64D0302B6BD810
:10225C00202B60D0202B67D8002B5CD0102B5AD0B1
:10226C0062E07B6818683B6899683B685A683B6811
:10227C00DB6800F0CCFA7B681B689B68BB60BB68B2
:10228C0043F07703BB607B681B68BA689A604FE0C9
:10229C007B6818683B6899683B685A683B68DB68E0
:1022AC0000F0B5FA7B681B689A687B681B6842F47F
:1022BC0080429A603CE07B6818683B6859683B68D0
:1022CC00DB681A4600F02CFA7B681B685021184614
:1022DC0000F083FA2CE07B6818683B6859683B680F
:1022EC00DB681A4600F04AFA7B681B6860211846C6
:1022FC0000F073FA1CE07B6818683B6859683B680F
:10230C00DB681A4600F00CFA7B681B684021184603
:10231C0000F063FA0CE07B681A683B681B6819468E
:10232C00104600F05AFA03E00123FB7300E000BFF3
:10233C007B68012283F83D207B68002283F83C20D7
:10234C00FB7B18461037BD4680BD000080B485B0BD
:10235C0000AF786039607B681B68FB607B68294A3A
:10236C0093420BD07B68B3F1804F07D07B68264A31
:10237C00934203D07B68254A934208D1FB6823F033
:10238C007003FB603B685B68FA681343FB607B6817
:10239C001C4A93420BD07B68B3F1804F07D07B680B
:1023AC00194A934203D07B68184A934208D1FB68C0
:1023BC0023F44073FB603B68DB68FA681343FB60F3
:1023CC00FB6823F080023B685B691343FB607B680E
:1023DC00FA681A603B689A687B68DA623B681A682C
:1023EC007B689A627B68074A934203D13B681A69FF
:1023FC007B681A637B6801225A6100BF1437BD46A3
:10240C0080BC7047002C01400004004000080040D4
:10241C0080B487B000AF786039607B681B6A7B61E1
:10242C007B681B6A23F001027B681A627B685B681D
:10243C003B617B689B69FB60FB6823F07003FB606E
:10244C00FB6823F00303FB603B681B68FA681343CB
:10245C00FB607B6923F002037B613B689B687A69B4
:10246C0013437B617B681C4A93420CD17B6923F03C
:10247C0008037B613B68DB687A6913437B617B698A
:10248C0023F004037B617B68134A934211D13B69AF
:10249C0023F480733B613B6923F400733B613B681D
:1024AC005B693A6913433B613B689B693A69134327
:1024BC003B617B683A695A607B68FA689A613B6851
:1024CC005A687B685A637B687A691A6200BF1C374A
:1024DC00BD4680BC704700BF002C014080B487B063
:1024EC0000AF786039607B681B6A7B617B681B6A14
:1024FC0023F010027B681A627B685B683B617B6827
:10250C009B69FB60FB6823F4E043FB60FB6823F4EE
:10251C004073FB603B681B681B02FA681343FB604B
:10252C007B6923F020037B613B689B681B017A6904
:10253C0013437B617B681D4A93420DD17B6923F069
:10254C0080037B613B68DB681B017A6913437B6109
:10255C007B6923F040037B617B68144A934213D15F
:10256C003B6923F480633B613B6923F400633B616B
:10257C003B685B699B003A6913433B613B689B6911
:10258C009B003A6913433B617B683A695A607B68EC
:10259C00FA689A613B685A687B689A637B687A69C7
:1025AC001A6200BF1C37BD4680BC7047002C01402E
:1025BC0080B487B000AF786039607B681B6A7B6140
:1025CC007B681B6A23F480727B681A627B685B6889
:1025DC003B617B68DB69FB60FB6823F07003FB608D
:1025EC00FB6823F00303FB603B681B68FA6813432A
:1025FC00FB607B6923F400737B613B689B681B0267
:10260C007A6913437B617B681D4A93420DD17B69C8
:10261C0023F400637B613B68DB681B027A6913431C
:10262C007B617B6923F480637B617B68144A9342F2
:10263C0013D13B6923F480533B613B6923F4005372
:10264C003B613B685B691B013A6913433B613B6827
:10265C009B691B013A6913433B617B683A695A6079
:10266C007B68FA68DA613B685A687B68DA637B6876
:10267C007A691A6200BF1C37BD4680BC704700BF28
:10268C00002C014080B487B000AF786039607B6863
:10269C001B6A3B617B681B6A23F480527B681A625D
:1026AC007B685B687B617B68DB69FB60FB6823F4A0
:1026BC00E043FB60FB6823F44073FB603B681B68E2
:1026CC001B02FA681343FB603B6923F400533B6124
:1026DC003B689B681B033A6913433B617B680F4A59
:1026EC00934209D17B6923F480437B613B685B692E
:1026FC009B017A6913437B617B687A695A607B68BA
:10270C00FA68DA613B685A687B681A647B683A69D4
:10271C001A6200BF1C37BD4680BC7047002C0140BC
:10272C0080B487B000AFF860B9607A60FB681B6A50
:10273C007B61FB681B6A23F00102FB681A62FB6871
:10274C009B693B613B6923F0F0033B617B681B0198
:10275C003A6913433B617B6923F00A037B617A6915
:10276C00BB6813437B61FB683A699A61FB687A69C1
:10277C001A6200BF1C37BD4680BC704780B487B05E
:10278C0000AFF860B9607A60FB681B6A7B61FB681C
:10279C001B6A23F01002FB681A62FB689B693B61A1
:1027AC003B6923F470433B617B681B033A69134319
:1027BC003B617B6923F0A0037B61BB681B017A69D9
:1027CC0013437B61FB683A699A61FB687A691A6208
:1027DC0000BF1C37BD4680BC704780B485B000AFCD
:1027EC00786039607B689B68FB60FB6823F0700342
:1027FC00FB603A68FB68134343F00703FB607B689C
:10280C00FA689A6000BF1437BD4680BC704780B42C
:10281C0087B000AFF860B9607A603B60FB689B687A
:10282C007B617B6923F47F437B613B681A027B6885
:10283C001A43BB6813437A6913437B61FB687A695B
:10284C009A6000BF1C37BD4680BC704780B487B00F
:10285C0000AFF860B9607A60BB6803F01F03012217
:10286C0002FA03F37B61FB681A6A7B69DB431A404B
:10287C00FB681A62FB681A6ABB6803F01F0379686D
:10288C0001FA03F31A43FB681A6200BF1C37BD46FA
:10289C0080BC704780B485B000AF786039607B68CD
:1028AC0093F83C30012B01D1022346E07B680122D6
:1028BC0083F83C207B68022283F83D207B681B68F0
:1028CC005B68FB607B681B689B68BB60FB6823F0E4
:1028DC007003FB603B681B68FA681343FB607B6802
:1028EC001B68FA685A607B681B68164A93420ED0C4
:1028FC007B681B68B3F1804F09D07B681B68124A58
:10290C00934204D07B681B68104A93420CD1BB687D
:10291C0023F08003BB603B685B68BA681343BB6001
:10292C007B681B68BA689A607B68012283F83D203B
:10293C007B68002283F83C20002318461437BD46E0
:10294C0080BC7047002C014000040040000800408F
:10295C0003460244934200D1704703F8011BF9E788
:10296C0070B500260C4D0D4C641BA410A64209D169
:10297C0000F01AF800260A4D0A4C641BA410A6425B
:10298C0005D170BD55F8043B98470136EEE755F874
:10299C00043B98470136F2E7F0290008F0290008BB
:1029AC00F0290008F4290008F8B500BFF8BC08BCF1
:1029BC009E467047F8B500BFF8BC08BC9E467047F1
:1029CC0000000000000000000102030406070809D3
:1029DC0002030405060708090A0B0C0D0E0F101054
:0429EC0001020000E4
:0429F00031010008A9
:0429F4000D010008C9
:1029F800014200000024F400100000000100000063
:04000005080009B531
:00000001FF
